:020000040000FA
:02000000432893
:040002000034003492
:08000800542982073034313421
:100010003234333434343534363437343834393494
:100020004134423443344434453446348316031354
:1000300098161812831203131816981708008316BF
:1000400003131815831603178711831603139A01D8
:100050008316031399000800831203130030A800CD
:100060000030AB000930A900080083160313C33029
:1000700085008316031300309F0083120313813021
:100080009F00602108008B170B17831603130C14B5
:100090000C130C12831203131014901010169016E8
:1000A00083160313880183120313880181301F20F4
:1000B0001620302135202C206430A7006C202C2104
:1000C000CF206028003083120313AF005230831218
:1000D0000313AB009120080052308620AB0064303F
:1000E0002B0203197F28831203130030AA0000306B
:1000F000AD006430AF005230AB00912008005030AA
:1001000086202A08513086202D0808008312031704
:100110008D00831603178C130C14831203170C081D
:100120000800831203132B08831203178D00831218
:1001300003132F08831203178C00831603178C13E5
:100140000C158B138B1BA12855308D00AA308D0008
:100150008C14831203130D1EAB280D120C11080012
:1001600029082A020319B628AA0AB8282808AA00CA
:100170002A082D02031D080029082D020319C22890
:10018000AD0A08002808AD0008009F149F18C62873
:10019000831203131E0883120313A00008008312A6
:1001A00003138C1E0800831203131A08B000413C8D
:1001B0000319DF283008483C0319E428080004210B
:1001C000C5200F21042108002D082A020319080068
:1001D00004212A08AB0028082B020319F128AB03DD
:1001E000F3282908AB002B0886200F2104212D08B5
:1001F0002B02031DEB282A0A2D02031D08002A08E2
:1002000086200F21042108000A30072108008312EC
:1002100003130C1E0929831203139900080083128B
:100220000313AE001E2183120313230805200721A8
:100230008312031321080520072108000F308312C1
:1002400003132E05A100F0302E05A300A30E080015
:1002500083120313101008008312031310140800F4
:10026000831203130B308F0083120313DC308E00D4
:10027000831203130C1008009F149F183D2983124A
:1002800003131E08AF002A08AB009120B0202A08F3
:10029000AF005030AB0091202D08AF005130AB00C3
:1002A00091206430A70008008B13A5000308A60066
:1002B000A70303193C2130212608830025080900E3
:1002C0000E30A2007830A400A20B6729A40B642989
:0602D0006929000008008E
:02400E00F2209E
:02401000FF3E71
:00000001FF
